{
  "_format": "hh-sol-artifact-1",
  "contractName": "AutoNFT",
  "sourceName": "contracts/AutoNFT.sol",
  "abi": [
    {
      "inputs": [],
      "stateMutability": "nonpayable",
      "type": "constructor"
    },
    {
      "anonymous": false,
      "inputs": [
        {
          "indexed": true,
          "internalType": "address",
          "name": "owner",
          "type": "address"
        },
        {
          "indexed": true,
          "internalType": "address",
          "name": "approved",
          "type": "address"
        },
        {
          "indexed": true,
          "internalType": "uint256",
          "name": "tokenId",
          "type": "uint256"
        }
      ],
      "name": "Approval",
      "type": "event"
    },
    {
      "anonymous": false,
      "inputs": [
        {
          "indexed": true,
          "internalType": "address",
          "name": "owner",
          "type": "address"
        },
        {
          "indexed": true,
          "internalType": "address",
          "name": "operator",
          "type": "address"
        },
        {
          "indexed": false,
          "internalType": "bool",
          "name": "approved",
          "type": "bool"
        }
      ],
      "name": "ApprovalForAll",
      "type": "event"
    },
    {
      "anonymous": false,
      "inputs": [
        {
          "indexed": true,
          "internalType": "address",
          "name": "from",
          "type": "address"
        },
        {
          "indexed": true,
          "internalType": "address",
          "name": "to",
          "type": "address"
        },
        {
          "indexed": true,
          "internalType": "uint256",
          "name": "tokenId",
          "type": "uint256"
        }
      ],
      "name": "Transfer",
      "type": "event"
    },
    {
      "inputs": [
        {
          "internalType": "address",
          "name": "to",
          "type": "address"
        },
        {
          "internalType": "uint256",
          "name": "tokenId",
          "type": "uint256"
        }
      ],
      "name": "approve",
      "outputs": [],
      "stateMutability": "nonpayable",
      "type": "function"
    },
    {
      "inputs": [
        {
          "internalType": "address",
          "name": "owner",
          "type": "address"
        }
      ],
      "name": "balanceOf",
      "outputs": [
        {
          "internalType": "uint256",
          "name": "",
          "type": "uint256"
        }
      ],
      "stateMutability": "view",
      "type": "function"
    },
    {
      "inputs": [
        {
          "internalType": "uint256",
          "name": "_productIndex",
          "type": "uint256"
        }
      ],
      "name": "buyProduct",
      "outputs": [],
      "stateMutability": "payable",
      "type": "function"
    },
    {
      "inputs": [
        {
          "internalType": "uint256",
          "name": "tokenId",
          "type": "uint256"
        }
      ],
      "name": "getApproved",
      "outputs": [
        {
          "internalType": "address",
          "name": "",
          "type": "address"
        }
      ],
      "stateMutability": "view",
      "type": "function"
    },
    {
      "inputs": [],
      "name": "getProducts",
      "outputs": [
        {
          "components": [
            {
              "internalType": "string",
              "name": "name",
              "type": "string"
            },
            {
              "internalType": "string",
              "name": "imagePath",
              "type": "string"
            },
            {
              "internalType": "uint256",
              "name": "price",
              "type": "uint256"
            }
          ],
          "internalType": "struct AutoNFT.Product[]",
          "name": "",
          "type": "tuple[]"
        }
      ],
      "stateMutability": "view",
      "type": "function"
    },
    {
      "inputs": [],
      "name": "getTokenId",
      "outputs": [
        {
          "internalType": "uint256",
          "name": "",
          "type": "uint256"
        }
      ],
      "stateMutability": "view",
      "type": "function"
    },
    {
      "inputs": [
        {
          "internalType": "address",
          "name": "owner",
          "type": "address"
        },
        {
          "internalType": "address",
          "name": "operator",
          "type": "address"
        }
      ],
      "name": "isApprovedForAll",
      "outputs": [
        {
          "internalType": "bool",
          "name": "",
          "type": "bool"
        }
      ],
      "stateMutability": "view",
      "type": "function"
    },
    {
      "inputs": [],
      "name": "name",
      "outputs": [
        {
          "internalType": "string",
          "name": "",
          "type": "string"
        }
      ],
      "stateMutability": "view",
      "type": "function"
    },
    {
      "inputs": [
        {
          "internalType": "uint256",
          "name": "tokenId",
          "type": "uint256"
        }
      ],
      "name": "ownerOf",
      "outputs": [
        {
          "internalType": "address",
          "name": "",
          "type": "address"
        }
      ],
      "stateMutability": "view",
      "type": "function"
    },
    {
      "inputs": [
        {
          "internalType": "uint256",
          "name": "",
          "type": "uint256"
        }
      ],
      "name": "products",
      "outputs": [
        {
          "internalType": "string",
          "name": "name",
          "type": "string"
        },
        {
          "internalType": "string",
          "name": "imagePath",
          "type": "string"
        },
        {
          "internalType": "uint256",
          "name": "price",
          "type": "uint256"
        }
      ],
      "stateMutability": "view",
      "type": "function"
    },
    {
      "inputs": [
        {
          "internalType": "address",
          "name": "",
          "type": "address"
        }
      ],
      "name": "purchaseCounts",
      "outputs": [
        {
          "internalType": "uint256",
          "name": "",
          "type": "uint256"
        }
      ],
      "stateMutability": "view",
      "type": "function"
    },
    {
      "inputs": [
        {
          "internalType": "address",
          "name": "from",
          "type": "address"
        },
        {
          "internalType": "address",
          "name": "to",
          "type": "address"
        },
        {
          "internalType": "uint256",
          "name": "tokenId",
          "type": "uint256"
        }
      ],
      "name": "safeTransferFrom",
      "outputs": [],
      "stateMutability": "nonpayable",
      "type": "function"
    },
    {
      "inputs": [
        {
          "internalType": "address",
          "name": "from",
          "type": "address"
        },
        {
          "internalType": "address",
          "name": "to",
          "type": "address"
        },
        {
          "internalType": "uint256",
          "name": "tokenId",
          "type": "uint256"
        },
        {
          "internalType": "bytes",
          "name": "data",
          "type": "bytes"
        }
      ],
      "name": "safeTransferFrom",
      "outputs": [],
      "stateMutability": "nonpayable",
      "type": "function"
    },
    {
      "inputs": [
        {
          "internalType": "address",
          "name": "operator",
          "type": "address"
        },
        {
          "internalType": "bool",
          "name": "approved",
          "type": "bool"
        }
      ],
      "name": "setApprovalForAll",
      "outputs": [],
      "stateMutability": "nonpayable",
      "type": "function"
    },
    {
      "inputs": [
        {
          "internalType": "bytes4",
          "name": "interfaceId",
          "type": "bytes4"
        }
      ],
      "name": "supportsInterface",
      "outputs": [
        {
          "internalType": "bool",
          "name": "",
          "type": "bool"
        }
      ],
      "stateMutability": "view",
      "type": "function"
    },
    {
      "inputs": [],
      "name": "symbol",
      "outputs": [
        {
          "internalType": "string",
          "name": "",
          "type": "string"
        }
      ],
      "stateMutability": "view",
      "type": "function"
    },
    {
      "inputs": [
        {
          "internalType": "uint256",
          "name": "index",
          "type": "uint256"
        }
      ],
      "name": "tokenByIndex",
      "outputs": [
        {
          "internalType": "uint256",
          "name": "",
          "type": "uint256"
        }
      ],
      "stateMutability": "view",
      "type": "function"
    },
    {
      "inputs": [
        {
          "internalType": "address",
          "name": "owner",
          "type": "address"
        },
        {
          "internalType": "uint256",
          "name": "index",
          "type": "uint256"
        }
      ],
      "name": "tokenOfOwnerByIndex",
      "outputs": [
        {
          "internalType": "uint256",
          "name": "",
          "type": "uint256"
        }
      ],
      "stateMutability": "view",
      "type": "function"
    },
    {
      "inputs": [
        {
          "internalType": "uint256",
          "name": "tokenId",
          "type": "uint256"
        }
      ],
      "name": "tokenURI",
      "outputs": [
        {
          "internalType": "string",
          "name": "",
          "type": "string"
        }
      ],
      "stateMutability": "view",
      "type": "function"
    },
    {
      "inputs": [],
      "name": "totalSupply",
      "outputs": [
        {
          "internalType": "uint256",
          "name": "",
          "type": "uint256"
        }
      ],
      "stateMutability": "view",
      "type": "function"
    },
    {
      "inputs": [
        {
          "internalType": "address",
          "name": "from",
          "type": "address"
        },
        {
          "internalType": "address",
          "name": "to",
          "type": "address"
        },
        {
          "internalType": "uint256",
          "name": "tokenId",
          "type": "uint256"
        }
      ],
      "name": "transferFrom",
      "outputs": [],
      "stateMutability": "nonpayable",
      "type": "function"
    },
    {
      "inputs": [
        {
          "internalType": "address",
          "name": "_nftAddress",
          "type": "address"
        }
      ],
      "name": "upgradeCustomers",
      "outputs": [],
      "stateMutability": "nonpayable",
      "type": "function"
    },
    {
      "inputs": [
        {
          "internalType": "address",
          "name": "",
          "type": "address"
        }
      ],
      "name": "userMinted",
      "outputs": [
        {
          "internalType": "bool",
          "name": "",
          "type": "bool"
        }
      ],
      "stateMutability": "view",
      "type": "function"
    }
  ],
  "bytecode": "0x60806040523480156200001157600080fd5b506040518060400160405280600781526020017f4c6f79616c7479000000000000000000000000000000000000000000000000008152506040518060400160405280600381526020017f4c5459000000000000000000000000000000000000000000000000000000000081525081600090816200008f9190620005fd565b508060019081620000a19190620005fd565b505050600c60405180606001604052806040518060400160405280600981526020017f477563636920426167000000000000000000000000000000000000000000000081525081526020016040518060400160405280600981526020017f67756363692e6a706700000000000000000000000000000000000000000000008152508152602001666a94d74f43000081525090806001815401808255809150506001900390600052602060002090600302016000909190919091506000820151816000019081620001729190620005fd565b5060208201518160010190816200018a9190620005fd565b50604082015181600201555050600c60405180606001604052806040518060400160405280600881526020017f5a6172612042616700000000000000000000000000000000000000000000000081525081526020016040518060400160405280600881526020017f7a6172612e6a70670000000000000000000000000000000000000000000000008152508152602001668e1bc9bf04000081525090806001815401808255809150506001900390600052602060002090600302016000909190919091506000820151816000019081620002659190620005fd565b5060208201518160010190816200027d9190620005fd565b50604082015181600201555050600c60405180606001604052806040518060400160405280600981526020017f4e696b652053686f65000000000000000000000000000000000000000000000081525081526020016040518060400160405280600881526020017f6e696b652e6a7067000000000000000000000000000000000000000000000000815250815260200166b1a2bc2ec5000081525090806001815401808255809150506001900390600052602060002090600302016000909190919091506000820151816000019081620003589190620005fd565b506020820151816001019081620003709190620005fd565b50604082015181600201555050620006e4565b600081519050919050565b7f4e487b7100000000000000000000000000000000000000000000000000000000600052604160045260246000fd5b7f4e487b7100000000000000000000000000000000000000000000000000000000600052602260045260246000fd5b600060028204905060018216806200040557607f821691505b6020821081036200041b576200041a620003bd565b5b50919050565b60008190508160005260206000209050919050565b60006020601f8301049050919050565b600082821b905092915050565b600060088302620004857fffffffffffffffffffffffffffffffffffffffffffffffffffffffffffffffff8262000446565b62000491868362000446565b95508019841693508086168417925050509392505050565b6000819050919050565b6000819050919050565b6000620004de620004d8620004d284620004a9565b620004b3565b620004a9565b9050919050565b6000819050919050565b620004fa83620004bd565b620005126200050982620004e5565b84845462000453565b825550505050565b600090565b620005296200051a565b62000536818484620004ef565b505050565b5b818110156200055e57620005526000826200051f565b6001810190506200053c565b5050565b601f821115620005ad57620005778162000421565b620005828462000436565b8101602085101562000592578190505b620005aa620005a18562000436565b8301826200053b565b50505b505050565b600082821c905092915050565b6000620005d260001984600802620005b2565b1980831691505092915050565b6000620005ed8383620005bf565b9150826002028217905092915050565b620006088262000383565b67ffffffffffffffff8111156200062457620006236200038e565b5b620006308254620003ec565b6200063d82828562000562565b600060209050601f83116001811462000675576000841562000660578287015190505b6200066c8582620005df565b865550620006dc565b601f198416620006858662000421565b60005b82811015620006af5784890151825560018201915060208501945060208101905062000688565b86831015620006cf5784890151620006cb601f891682620005bf565b8355505b6001600288020188555050505b505050505050565b6143a780620006f46000396000f3fe6080604052600436106101405760003560e01c80636352211e116100b6578063a22cb4651161006f578063a22cb4651461049b578063b88d4fde146104c4578063c29b2f20146104ed578063c87b56dd14610518578063e985e9c514610555578063ff1148911461059257610140565b80636352211e146103725780636b5d5f16146103af57806370a08231146103d85780637acc0b20146104155780638642269e1461045457806395d89b411461047057610140565b806318160ddd1161010857806318160ddd1461023e5780631aa5e8721461026957806323b872dd146102a65780632f745c59146102cf57806342842e0e1461030c5780634f6ccce71461033557610140565b8063010a38f51461014557806301ffc9a71461017057806306fdde03146101ad578063081812fc146101d8578063095ea7b314610215575b600080fd5b34801561015157600080fd5b5061015a6105cf565b6040516101679190612ce6565b60405180910390f35b34801561017c57600080fd5b5061019760048036038101906101929190612d6d565b61066f565b6040516101a49190612db5565b60405180910390f35b3480156101b957600080fd5b506101c2610681565b6040516101cf9190612e60565b60405180910390f35b3480156101e457600080fd5b506101ff60048036038101906101fa9190612eae565b610713565b60405161020c9190612f1c565b60405180910390f35b34801561022157600080fd5b5061023c60048036038101906102379190612f63565b610759565b005b34801561024a57600080fd5b50610253610870565b6040516102609190612ce6565b60405180910390f35b34801561027557600080fd5b50610290600480360381019061028b9190612fa3565b61087d565b60405161029d9190612db5565b60405180910390f35b3480156102b257600080fd5b506102cd60048036038101906102c89190612fd0565b61089d565b005b3480156102db57600080fd5b506102f660048036038101906102f19190612f63565b6108fd565b6040516103039190612ce6565b60405180910390f35b34801561031857600080fd5b50610333600480360381019061032e9190612fd0565b6109a2565b005b34801561034157600080fd5b5061035c60048036038101906103579190612eae565b6109c2565b6040516103699190612ce6565b60405180910390f35b34801561037e57600080fd5b5061039960048036038101906103949190612eae565b610a33565b6040516103a69190612f1c565b60405180910390f35b3480156103bb57600080fd5b506103d660048036038101906103d19190612fa3565b610ab9565b005b3480156103e457600080fd5b506103ff60048036038101906103fa9190612fa3565b610dd9565b60405161040c9190612ce6565b60405180910390f35b34801561042157600080fd5b5061043c60048036038101906104379190612eae565b610e90565b60405161044b93929190613023565b60405180910390f35b61046e60048036038101906104699190612eae565b610fda565b005b34801561047c57600080fd5b506104856112dc565b6040516104929190612e60565b60405180910390f35b3480156104a757600080fd5b506104c260048036038101906104bd9190613094565b61136e565b005b3480156104d057600080fd5b506104eb60048036038101906104e69190613209565b611384565b005b3480156104f957600080fd5b506105026113e6565b60405161050f91906133fe565b60405180910390f35b34801561052457600080fd5b5061053f600480360381019061053a9190612eae565b611573565b60405161054c9190612e60565b60405180910390f35b34801561056157600080fd5b5061057c60048036038101906105779190613420565b611585565b6040516105899190612db5565b60405180910390f35b34801561059e57600080fd5b506105b960048036038101906105b49190612fa3565b611619565b6040516105c69190612ce6565b60405180910390f35b6000600e60003373ffffffffffffffffffffffffffffffffffffffff1673ffffffffffffffffffffffffffffffffffffffff16815260200190815260200160002060009054906101000a900460ff1661065d576040517f08c379a0000000000000000000000000000000000000000000000000000000008152600401610654906134ac565b60405180910390fd5b600061066933826108fd565b91505090565b600061067a82611631565b9050919050565b606060008054610690906134fb565b80601f01602080910402602001604051908101604052809291908181526020018280546106bc906134fb565b80156107095780601f106106de57610100808354040283529160200191610709565b820191906000526020600020905b8154815290600101906020018083116106ec57829003601f168201915b5050505050905090565b600061071e826116ab565b6004600083815260200190815260200160002060009054906101000a900473ffffffffffffffffffffffffffffffffffffffff169050919050565b600061076482610a33565b90508073ffffffffffffffffffffffffffffffffffffffff168373ffffffffffffffffffffffffffffffffffffffff16036107d4576040517f08c379a00000000000000000000000000000000000000000000000000000000081526004016107cb9061359e565b60405180910390fd5b8073ffffffffffffffffffffffffffffffffffffffff166107f36116f6565b73ffffffffffffffffffffffffffffffffffffffff16148061082257506108218161081c6116f6565b611585565b5b610861576040517f08c379a000000000000000000000000000000000000000000000000000000000815260040161085890613630565b60405180910390fd5b61086b83836116fe565b505050565b6000600880549050905090565b600e6020528060005260406000206000915054906101000a900460ff1681565b6108ae6108a86116f6565b826117b7565b6108ed576040517f08c379a00000000000000000000000000000000000000000000000000000000081526004016108e4906136c2565b60405180910390fd5b6108f883838361184c565b505050565b600061090883610dd9565b8210610949576040517f08c379a000000000000000000000000000000000000000000000000000000000815260040161094090613754565b60405180910390fd5b600660008473ffffffffffffffffffffffffffffffffffffffff1673ffffffffffffffffffffffffffffffffffffffff168152602001908152602001600020600083815260200190815260200160002054905092915050565b6109bd83838360405180602001604052806000815250611384565b505050565b60006109cc610870565b8210610a0d576040517f08c379a0000000000000000000000000000000000000000000000000000000008152600401610a04906137e6565b60405180910390fd5b60088281548110610a2157610a20613806565b5b90600052602060002001549050919050565b600080610a3f83611b45565b9050600073ffffffffffffffffffffffffffffffffffffffff168173ffffffffffffffffffffffffffffffffffffffff1603610ab0576040517f08c379a0000000000000000000000000000000000000000000000000000000008152600401610aa790613881565b60405180910390fd5b80915050919050565b60005b600b80549050811015610dd5576000600b8281548110610adf57610ade613806565b5b9060005260206000200160009054906101000a900473ffffffffffffffffffffffffffffffffffffffff1690506000600d60008373ffffffffffffffffffffffffffffffffffffffff1673ffffffffffffffffffffffffffffffffffffffff168152602001908152602001600020549050600e60008373ffffffffffffffffffffffffffffffffffffffff1673ffffffffffffffffffffffffffffffffffffffff16815260200190815260200160002060009054906101000a900460ff1615610d165760008473ffffffffffffffffffffffffffffffffffffffff16632f745c598460006040518363ffffffff1660e01b8152600401610be09291906138e6565b602060405180830381865afa158015610bfd573d6000803e3d6000fd5b505050506040513d601f19601f82011682018060405250810190610c219190613924565b90506002821015610c765760006040518060400160405280600981526020017f6e6674312e6a736f6e00000000000000000000000000000000000000000000008152509050610c708282611b82565b50610d10565b6003821015610cc95760006040518060400160405280600981526020017f6e6674322e6a736f6e00000000000000000000000000000000000000000000008152509050610cc38282611b82565b50610d0f565b60006040518060400160405280600981526020017f6e6674332e6a736f6e00000000000000000000000000000000000000000000008152509050610d0d8282611b82565b505b5b50610dc0565b6000806040518060400160405280600981526020017f6e6674312e6a736f6e00000000000000000000000000000000000000000000008152509050610d5b8483611bef565b610d658282611b82565b6001600e60008673ffffffffffffffffffffffffffffffffffffffff1673ffffffffffffffffffffffffffffffffffffffff16815260200190815260200160002060006101000a81548160ff02191690831515021790555050505b50508080610dcd90613980565b915050610abc565b5050565b60008073ffffffffffffffffffffffffffffffffffffffff168273ffffffffffffffffffffffffffffffffffffffff1603610e49576040517f08c379a0000000000000000000000000000000000000000000000000000000008152600401610e4090613a3a565b60405180910390fd5b600360008373ffffffffffffffffffffffffffffffffffffffff1673ffffffffffffffffffffffffffffffffffffffff168152602001908152602001600020549050919050565b600c8181548110610ea057600080fd5b9060005260206000209060030201600091509050806000018054610ec3906134fb565b80601f0160208091040260200160405190810160405280929190818152602001828054610eef906134fb565b8015610f3c5780601f10610f1157610100808354040283529160200191610f3c565b820191906000526020600020905b815481529060010190602001808311610f1f57829003601f168201915b505050505090806001018054610f51906134fb565b80601f0160208091040260200160405190810160405280929190818152602001828054610f7d906134fb565b8015610fca5780601f10610f9f57610100808354040283529160200191610fca565b820191906000526020600020905b815481529060010190602001808311610fad57829003601f168201915b5050505050908060020154905083565b6000600c8281548110610ff057610fef613806565b5b9060005260206000209060030201604051806060016040529081600082018054611019906134fb565b80601f0160208091040260200160405190810160405280929190818152602001828054611045906134fb565b80156110925780601f1061106757610100808354040283529160200191611092565b820191906000526020600020905b81548152906001019060200180831161107557829003601f168201915b505050505081526020016001820180546110ab906134fb565b80601f01602080910402602001604051908101604052809291908181526020018280546110d7906134fb565b80156111245780601f106110f957610100808354040283529160200191611124565b820191906000526020600020905b81548152906001019060200180831161110757829003601f168201915b5050505050815260200160028201548152505090503481604001511461117f576040517f08c379a000000000000000000000000000000000000000000000000000000000815260040161117690613aa6565b60405180910390fd5b600e60003373ffffffffffffffffffffffffffffffffffffffff1673ffffffffffffffffffffffffffffffffffffffff16815260200190815260200160002060009054906101000a900460ff1661127a576000806040518060400160405280600981526020017f6e6674312e6a736f6e000000000000000000000000000000000000000000000081525090506112153383611bef565b61121f8282611b82565b6001600e60003373ffffffffffffffffffffffffffffffffffffffff1673ffffffffffffffffffffffffffffffffffffffff16815260200190815260200160002060006101000a81548160ff02191690831515021790555050505b600d60003373ffffffffffffffffffffffffffffffffffffffff1673ffffffffffffffffffffffffffffffffffffffff16815260200190815260200160002060008154809291906112ca90613980565b91905055506112d833611c0d565b5050565b6060600180546112eb906134fb565b80601f0160208091040260200160405190810160405280929190818152602001828054611317906134fb565b80156113645780601f1061133957610100808354040283529160200191611364565b820191906000526020600020905b81548152906001019060200180831161134757829003601f168201915b5050505050905090565b6113806113796116f6565b8383611d19565b5050565b61139561138f6116f6565b836117b7565b6113d4576040517f08c379a00000000000000000000000000000000000000000000000000000000081526004016113cb906136c2565b60405180910390fd5b6113e084848484611e85565b50505050565b6060600c805480602002602001604051908101604052809291908181526020016000905b8282101561156a578382906000526020600020906003020160405180606001604052908160008201805461143d906134fb565b80601f0160208091040260200160405190810160405280929190818152602001828054611469906134fb565b80156114b65780601f1061148b576101008083540402835291602001916114b6565b820191906000526020600020905b81548152906001019060200180831161149957829003601f168201915b505050505081526020016001820180546114cf906134fb565b80601f01602080910402602001604051908101604052809291908181526020018280546114fb906134fb565b80156115485780601f1061151d57610100808354040283529160200191611548565b820191906000526020600020905b81548152906001019060200180831161152b57829003601f168201915b505050505081526020016002820154815250508152602001906001019061140a565b50505050905090565b606061157e82611ee1565b9050919050565b6000600560008473ffffffffffffffffffffffffffffffffffffffff1673ffffffffffffffffffffffffffffffffffffffff16815260200190815260200160002060008373ffffffffffffffffffffffffffffffffffffffff1673ffffffffffffffffffffffffffffffffffffffff16815260200190815260200160002060009054906101000a900460ff16905092915050565b600d6020528060005260406000206000915090505481565b60007f780e9d63000000000000000000000000000000000000000000000000000000007bffffffffffffffffffffffffffffffffffffffffffffffffffffffff1916827bffffffffffffffffffffffffffffffffffffffffffffffffffffffff191614806116a457506116a382611ff3565b5b9050919050565b6116b4816120d5565b6116f3576040517f08c379a00000000000000000000000000000000000000000000000000000000081526004016116ea90613881565b60405180910390fd5b50565b600033905090565b816004600083815260200190815260200160002060006101000a81548173ffffffffffffffffffffffffffffffffffffffff021916908373ffffffffffffffffffffffffffffffffffffffff160217905550808273ffffffffffffffffffffffffffffffffffffffff1661177183610a33565b73ffffffffffffffffffffffffffffffffffffffff167f8c5be1e5ebec7d5bd14f71427d1e84f3dd0314c0f7b2291e5b200ac8c7c3b92560405160405180910390a45050565b6000806117c383610a33565b90508073ffffffffffffffffffffffffffffffffffffffff168473ffffffffffffffffffffffffffffffffffffffff16148061180557506118048185611585565b5b8061184357508373ffffffffffffffffffffffffffffffffffffffff1661182b84610713565b73ffffffffffffffffffffffffffffffffffffffff16145b91505092915050565b8273ffffffffffffffffffffffffffffffffffffffff1661186c82610a33565b73ffffffffffffffffffffffffffffffffffffffff16146118c2576040517f08c379a00000000000000000000000000000000000000000000000000000000081526004016118b990613b38565b60405180910390fd5b600073ffffffffffffffffffffffffffffffffffffffff168273ffffffffffffffffffffffffffffffffffffffff1603611931576040517f08c379a000000000000000000000000000000000000000000000000000000000815260040161192890613bca565b60405180910390fd5b61193e8383836001612116565b8273ffffffffffffffffffffffffffffffffffffffff1661195e82610a33565b73ffffffffffffffffffffffffffffffffffffffff16146119b4576040517f08c379a00000000000000000000000000000000000000000000000000000000081526004016119ab90613b38565b60405180910390fd5b6004600082815260200190815260200160002060006101000a81549073ffffffffffffffffffffffffffffffffffffffff02191690556001600360008573ffffffffffffffffffffffffffffffffffffffff1673ffffffffffffffffffffffffffffffffffffffff168152602001908152602001600020600082825403925050819055506001600360008473ffffffffffffffffffffffffffffffffffffffff1673ffffffffffffffffffffffffffffffffffffffff16815260200190815260200160002060008282540192505081905550816002600083815260200190815260200160002060006101000a81548173ffffffffffffffffffffffffffffffffffffffff021916908373ffffffffffffffffffffffffffffffffffffffff160217905550808273ffffffffffffffffffffffffffffffffffffffff168473ffffffffffffffffffffffffffffffffffffffff167fddf252ad1be2c89b69c2b068fc378daa952ba7f163c4a11628f55a4df523b3ef60405160405180910390a4611b408383836001612128565b505050565b60006002600083815260200190815260200160002060009054906101000a900473ffffffffffffffffffffffffffffffffffffffff169050919050565b611b8b826120d5565b611bca576040517f08c379a0000000000000000000000000000000000000000000000000000000008152600401611bc190613c5c565b60405180910390fd5b80600a60008481526020019081526020016000209081611bea9190613e1e565b505050565b611c0982826040518060200160405280600081525061212e565b5050565b6000805b600b80549050811015611cab578273ffffffffffffffffffffffffffffffffffffffff16600b8281548110611c4957611c48613806565b5b9060005260206000200160009054906101000a900473ffffffffffffffffffffffffffffffffffffffff1673ffffffffffffffffffffffffffffffffffffffff1603611c985760019150611cab565b8080611ca390613980565b915050611c11565b5080611d1557600b829080600181540180825580915050600190039060005260206000200160009091909190916101000a81548173ffffffffffffffffffffffffffffffffffffffff021916908373ffffffffffffffffffffffffffffffffffffffff1602179055505b5050565b8173ffffffffffffffffffffffffffffffffffffffff168373ffffffffffffffffffffffffffffffffffffffff1603611d87576040517f08c379a0000000000000000000000000000000000000000000000000000000008152600401611d7e90613f3c565b60405180910390fd5b80600560008573ffffffffffffffffffffffffffffffffffffffff1673ffffffffffffffffffffffffffffffffffffffff16815260200190815260200160002060008473ffffffffffffffffffffffffffffffffffffffff1673ffffffffffffffffffffffffffffffffffffffff16815260200190815260200160002060006101000a81548160ff0219169083151502179055508173ffffffffffffffffffffffffffffffffffffffff168373ffffffffffffffffffffffffffffffffffffffff167f17307eab39ab6107e8899845ad3d59bd9653f200f220920489ca2b5937696c3183604051611e789190612db5565b60405180910390a3505050565b611e9084848461184c565b611e9c84848484612189565b611edb576040517f08c379a0000000000000000000000000000000000000000000000000000000008152600401611ed290613fce565b60405180910390fd5b50505050565b6060611eec826116ab565b6000600a60008481526020019081526020016000208054611f0c906134fb565b80601f0160208091040260200160405190810160405280929190818152602001828054611f38906134fb565b8015611f855780601f10611f5a57610100808354040283529160200191611f85565b820191906000526020600020905b815481529060010190602001808311611f6857829003601f168201915b505050505090506000611f96612310565b90506000815103611fab578192505050611fee565b600082511115611fe0578082604051602001611fc892919061402a565b60405160208183030381529060405292505050611fee565b611fe984612330565b925050505b919050565b60007f80ac58cd000000000000000000000000000000000000000000000000000000007bffffffffffffffffffffffffffffffffffffffffffffffffffffffff1916827bffffffffffffffffffffffffffffffffffffffffffffffffffffffff191614806120be57507f5b5e139f000000000000000000000000000000000000000000000000000000007bffffffffffffffffffffffffffffffffffffffffffffffffffffffff1916827bffffffffffffffffffffffffffffffffffffffffffffffffffffffff1916145b806120ce57506120cd82612398565b5b9050919050565b60008073ffffffffffffffffffffffffffffffffffffffff166120f783611b45565b73ffffffffffffffffffffffffffffffffffffffff1614159050919050565b61212284848484612402565b50505050565b50505050565b6121388383612560565b6121456000848484612189565b612184576040517f08c379a000000000000000000000000000000000000000000000000000000000815260040161217b90613fce565b60405180910390fd5b505050565b60006121aa8473ffffffffffffffffffffffffffffffffffffffff1661277d565b15612303578373ffffffffffffffffffffffffffffffffffffffff1663150b7a026121d36116f6565b8786866040518563ffffffff1660e01b81526004016121f594939291906140a3565b6020604051808303816000875af192505050801561223157506040513d601f19601f8201168201806040525081019061222e9190614104565b60015b6122b3573d8060008114612261576040519150601f19603f3d011682016040523d82523d6000602084013e612266565b606091505b5060008151036122ab576040517f08c379a00000000000000000000000000000000000000000000000000000000081526004016122a290613fce565b60405180910390fd5b805181602001fd5b63150b7a0260e01b7bffffffffffffffffffffffffffffffffffffffffffffffffffffffff1916817bffffffffffffffffffffffffffffffffffffffffffffffffffffffff191614915050612308565b600190505b949350505050565b606060405180608001604052806044815260200161432e60449139905090565b606061233b826116ab565b6000612345612310565b905060008151116123655760405180602001604052806000815250612390565b8061236f846127a0565b60405160200161238092919061402a565b6040516020818303038152906040525b915050919050565b60007f01ffc9a7000000000000000000000000000000000000000000000000000000007bffffffffffffffffffffffffffffffffffffffffffffffffffffffff1916827bffffffffffffffffffffffffffffffffffffffffffffffffffffffff1916149050919050565b61240e8484848461286e565b6001811115612452576040517f08c379a0000000000000000000000000000000000000000000000000000000008152600401612449906141a3565b60405180910390fd5b6000829050600073ffffffffffffffffffffffffffffffffffffffff168573ffffffffffffffffffffffffffffffffffffffff16036124995761249481612874565b6124d8565b8373ffffffffffffffffffffffffffffffffffffffff168573ffffffffffffffffffffffffffffffffffffffff16146124d7576124d685826128bd565b5b5b600073ffffffffffffffffffffffffffffffffffffffff168473ffffffffffffffffffffffffffffffffffffffff160361251a5761251581612a2a565b612559565b8473ffffffffffffffffffffffffffffffffffffffff168473ffffffffffffffffffffffffffffffffffffffff1614612558576125578482612afb565b5b5b5050505050565b600073ffffffffffffffffffffffffffffffffffffffff168273ffffffffffffffffffffffffffffffffffffffff16036125cf576040517f08c379a00000000000000000000000000000000000000000000000000000000081526004016125c69061420f565b60405180910390fd5b6125d8816120d5565b15612618576040517f08c379a000000000000000000000000000000000000000000000000000000000815260040161260f9061427b565b60405180910390fd5b612626600083836001612116565b61262f816120d5565b1561266f576040517f08c379a00000000000000000000000000000000000000000000000000000000081526004016126669061427b565b60405180910390fd5b6001600360008473ffffffffffffffffffffffffffffffffffffffff1673ffffffffffffffffffffffffffffffffffffffff16815260200190815260200160002060008282540192505081905550816002600083815260200190815260200160002060006101000a81548173ffffffffffffffffffffffffffffffffffffffff021916908373ffffffffffffffffffffffffffffffffffffffff160217905550808273ffffffffffffffffffffffffffffffffffffffff16600073ffffffffffffffffffffffffffffffffffffffff167fddf252ad1be2c89b69c2b068fc378daa952ba7f163c4a11628f55a4df523b3ef60405160405180910390a4612779600083836001612128565b5050565b6000808273ffffffffffffffffffffffffffffffffffffffff163b119050919050565b6060600060016127af84612b7a565b01905060008167ffffffffffffffff8111156127ce576127cd6130de565b5b6040519080825280601f01601f1916602001820160405280156128005781602001600182028036833780820191505090505b509050600082602001820190505b600115612863578080600190039150507f3031323334353637383961626364656600000000000000000000000000000000600a86061a8153600a85816128575761285661429b565b5b0494506000850361280e575b819350505050919050565b50505050565b6008805490506009600083815260200190815260200160002081905550600881908060018154018082558091505060019003906000526020600020016000909190919091505550565b600060016128ca84610dd9565b6128d491906142ca565b90506000600760008481526020019081526020016000205490508181146129b9576000600660008673ffffffffffffffffffffffffffffffffffffffff1673ffffffffffffffffffffffffffffffffffffffff168152602001908152602001600020600084815260200190815260200160002054905080600660008773ffffffffffffffffffffffffffffffffffffffff1673ffffffffffffffffffffffffffffffffffffffff168152602001908152602001600020600084815260200190815260200160002081905550816007600083815260200190815260200160002081905550505b6007600084815260200190815260200160002060009055600660008573ffffffffffffffffffffffffffffffffffffffff1673ffffffffffffffffffffffffffffffffffffffff16815260200190815260200160002060008381526020019081526020016000206000905550505050565b60006001600880549050612a3e91906142ca565b9050600060096000848152602001908152602001600020549050600060088381548110612a6e57612a6d613806565b5b906000526020600020015490508060088381548110612a9057612a8f613806565b5b906000526020600020018190555081600960008381526020019081526020016000208190555060096000858152602001908152602001600020600090556008805480612adf57612ade6142fe565b5b6001900381819060005260206000200160009055905550505050565b6000612b0683610dd9565b905081600660008573ffffffffffffffffffffffffffffffffffffffff1673ffffffffffffffffffffffffffffffffffffffff168152602001908152602001600020600083815260200190815260200160002081905550806007600084815260200190815260200160002081905550505050565b600080600090507a184f03e93ff9f4daa797ed6e38ed64bf6a1f0100000000000000008310612bd8577a184f03e93ff9f4daa797ed6e38ed64bf6a1f0100000000000000008381612bce57612bcd61429b565b5b0492506040810190505b6d04ee2d6d415b85acef81000000008310612c15576d04ee2d6d415b85acef81000000008381612c0b57612c0a61429b565b5b0492506020810190505b662386f26fc100008310612c4457662386f26fc100008381612c3a57612c3961429b565b5b0492506010810190505b6305f5e1008310612c6d576305f5e1008381612c6357612c6261429b565b5b0492506008810190505b6127108310612c92576127108381612c8857612c8761429b565b5b0492506004810190505b60648310612cb55760648381612cab57612caa61429b565b5b0492506002810190505b600a8310612cc4576001810190505b80915050919050565b6000819050919050565b612ce081612ccd565b82525050565b6000602082019050612cfb6000830184612cd7565b92915050565b6000604051905090565b600080fd5b600080fd5b60007fffffffff0000000000000000000000000000000000000000000000000000000082169050919050565b612d4a81612d15565b8114612d5557600080fd5b50565b600081359050612d6781612d41565b92915050565b600060208284031215612d8357612d82612d0b565b5b6000612d9184828501612d58565b91505092915050565b60008115159050919050565b612daf81612d9a565b82525050565b6000602082019050612dca6000830184612da6565b92915050565b600081519050919050565b600082825260208201905092915050565b60005b83811015612e0a578082015181840152602081019050612def565b60008484015250505050565b6000601f19601f8301169050919050565b6000612e3282612dd0565b612e3c8185612ddb565b9350612e4c818560208601612dec565b612e5581612e16565b840191505092915050565b60006020820190508181036000830152612e7a8184612e27565b905092915050565b612e8b81612ccd565b8114612e9657600080fd5b50565b600081359050612ea881612e82565b92915050565b600060208284031215612ec457612ec3612d0b565b5b6000612ed284828501612e99565b91505092915050565b600073ffffffffffffffffffffffffffffffffffffffff82169050919050565b6000612f0682612edb565b9050919050565b612f1681612efb565b82525050565b6000602082019050612f316000830184612f0d565b92915050565b612f4081612efb565b8114612f4b57600080fd5b50565b600081359050612f5d81612f37565b92915050565b60008060408385031215612f7a57612f79612d0b565b5b6000612f8885828601612f4e565b9250506020612f9985828601612e99565b9150509250929050565b600060208284031215612fb957612fb8612d0b565b5b6000612fc784828501612f4e565b91505092915050565b600080600060608486031215612fe957612fe8612d0b565b5b6000612ff786828701612f4e565b935050602061300886828701612f4e565b925050604061301986828701612e99565b9150509250925092565b6000606082019050818103600083015261303d8186612e27565b905081810360208301526130518185612e27565b90506130606040830184612cd7565b949350505050565b61307181612d9a565b811461307c57600080fd5b50565b60008135905061308e81613068565b92915050565b600080604083850312156130ab576130aa612d0b565b5b60006130b985828601612f4e565b92505060206130ca8582860161307f565b9150509250929050565b600080fd5b600080fd5b7f4e487b7100000000000000000000000000000000000000000000000000000000600052604160045260246000fd5b61311682612e16565b810181811067ffffffffffffffff82111715613135576131346130de565b5b80604052505050565b6000613148612d01565b9050613154828261310d565b919050565b600067ffffffffffffffff821115613174576131736130de565b5b61317d82612e16565b9050602081019050919050565b82818337600083830152505050565b60006131ac6131a784613159565b61313e565b9050828152602081018484840111156131c8576131c76130d9565b5b6131d384828561318a565b509392505050565b600082601f8301126131f0576131ef6130d4565b5b8135613200848260208601613199565b91505092915050565b6000806000806080858703121561322357613222612d0b565b5b600061323187828801612f4e565b945050602061324287828801612f4e565b935050604061325387828801612e99565b925050606085013567ffffffffffffffff81111561327457613273612d10565b5b613280878288016131db565b91505092959194509250565b600081519050919050565b600082825260208201905092915050565b6000819050602082019050919050565b600082825260208201905092915050565b60006132d482612dd0565b6132de81856132b8565b93506132ee818560208601612dec565b6132f781612e16565b840191505092915050565b61330b81612ccd565b82525050565b6000606083016000830151848203600086015261332e82826132c9565b9150506020830151848203602086015261334882826132c9565b915050604083015161335d6040860182613302565b508091505092915050565b60006133748383613311565b905092915050565b6000602082019050919050565b60006133948261328c565b61339e8185613297565b9350836020820285016133b0856132a8565b8060005b858110156133ec57848403895281516133cd8582613368565b94506133d88361337c565b925060208a019950506001810190506133b4565b50829750879550505050505092915050565b600060208201905081810360008301526134188184613389565b905092915050565b6000806040838503121561343757613436612d0b565b5b600061344585828601612f4e565b925050602061345685828601612f4e565b9150509250929050565b7f5573657220686173206e6f74204e465400000000000000000000000000000000600082015250565b6000613496601083612ddb565b91506134a182613460565b602082019050919050565b600060208201905081810360008301526134c581613489565b9050919050565b7f4e487b7100000000000000000000000000000000000000000000000000000000600052602260045260246000fd5b6000600282049050600182168061351357607f821691505b602082108103613526576135256134cc565b5b50919050565b7f4552433732313a20617070726f76616c20746f2063757272656e74206f776e6560008201527f7200000000000000000000000000000000000000000000000000000000000000602082015250565b6000613588602183612ddb565b91506135938261352c565b604082019050919050565b600060208201905081810360008301526135b78161357b565b9050919050565b7f4552433732313a20617070726f76652063616c6c6572206973206e6f7420746f60008201527f6b656e206f776e6572206f7220617070726f76656420666f7220616c6c000000602082015250565b600061361a603d83612ddb565b9150613625826135be565b604082019050919050565b600060208201905081810360008301526136498161360d565b9050919050565b7f4552433732313a2063616c6c6572206973206e6f7420746f6b656e206f776e6560008201527f72206f7220617070726f76656400000000000000000000000000000000000000602082015250565b60006136ac602d83612ddb565b91506136b782613650565b604082019050919050565b600060208201905081810360008301526136db8161369f565b9050919050565b7f455243373231456e756d657261626c653a206f776e657220696e646578206f7560008201527f74206f6620626f756e6473000000000000000000000000000000000000000000602082015250565b600061373e602b83612ddb565b9150613749826136e2565b604082019050919050565b6000602082019050818103600083015261376d81613731565b9050919050565b7f455243373231456e756d657261626c653a20676c6f62616c20696e646578206f60008201527f7574206f6620626f756e64730000000000000000000000000000000000000000602082015250565b60006137d0602c83612ddb565b91506137db82613774565b604082019050919050565b600060208201905081810360008301526137ff816137c3565b9050919050565b7f4e487b7100000000000000000000000000000000000000000000000000000000600052603260045260246000fd5b7f4552433732313a20696e76616c696420746f6b656e2049440000000000000000600082015250565b600061386b601883612ddb565b915061387682613835565b602082019050919050565b6000602082019050818103600083015261389a8161385e565b9050919050565b6000819050919050565b6000819050919050565b60006138d06138cb6138c6846138a1565b6138ab565b612ccd565b9050919050565b6138e0816138b5565b82525050565b60006040820190506138fb6000830185612f0d565b61390860208301846138d7565b9392505050565b60008151905061391e81612e82565b92915050565b60006020828403121561393a57613939612d0b565b5b60006139488482850161390f565b91505092915050565b7f4e487b7100000000000000000000000000000000000000000000000000000000600052601160045260246000fd5b600061398b82612ccd565b91507fffffffffffffffffffffffffffffffffffffffffffffffffffffffffffffffff82036139bd576139bc613951565b5b600182019050919050565b7f4552433732313a2061646472657373207a65726f206973206e6f74206120766160008201527f6c6964206f776e65720000000000000000000000000000000000000000000000602082015250565b6000613a24602983612ddb565b9150613a2f826139c8565b604082019050919050565b60006020820190508181036000830152613a5381613a17565b9050919050565b7f496e636f72726563742070726f6475637420616d6f756e740000000000000000600082015250565b6000613a90601883612ddb565b9150613a9b82613a5a565b602082019050919050565b60006020820190508181036000830152613abf81613a83565b9050919050565b7f4552433732313a207472616e736665722066726f6d20696e636f72726563742060008201527f6f776e6572000000000000000000000000000000000000000000000000000000602082015250565b6000613b22602583612ddb565b9150613b2d82613ac6565b604082019050919050565b60006020820190508181036000830152613b5181613b15565b9050919050565b7f4552433732313a207472616e7366657220746f20746865207a65726f2061646460008201527f7265737300000000000000000000000000000000000000000000000000000000602082015250565b6000613bb4602483612ddb565b9150613bbf82613b58565b604082019050919050565b60006020820190508181036000830152613be381613ba7565b9050919050565b7f45524337323155524953746f726167653a2055524920736574206f66206e6f6e60008201527f6578697374656e7420746f6b656e000000000000000000000000000000000000602082015250565b6000613c46602e83612ddb565b9150613c5182613bea565b604082019050919050565b60006020820190508181036000830152613c7581613c39565b9050919050565b60008190508160005260206000209050919050565b60006020601f8301049050919050565b600082821b905092915050565b600060088302613cde7fffffffffffffffffffffffffffffffffffffffffffffffffffffffffffffffff82613ca1565b613ce88683613ca1565b95508019841693508086168417925050509392505050565b6000613d1b613d16613d1184612ccd565b6138ab565b612ccd565b9050919050565b6000819050919050565b613d3583613d00565b613d49613d4182613d22565b848454613cae565b825550505050565b600090565b613d5e613d51565b613d69818484613d2c565b505050565b5b81811015613d8d57613d82600082613d56565b600181019050613d6f565b5050565b601f821115613dd257613da381613c7c565b613dac84613c91565b81016020851015613dbb578190505b613dcf613dc785613c91565b830182613d6e565b50505b505050565b600082821c905092915050565b6000613df560001984600802613dd7565b1980831691505092915050565b6000613e0e8383613de4565b9150826002028217905092915050565b613e2782612dd0565b67ffffffffffffffff811115613e4057613e3f6130de565b5b613e4a82546134fb565b613e55828285613d91565b600060209050601f831160018114613e885760008415613e76578287015190505b613e808582613e02565b865550613ee8565b601f198416613e9686613c7c565b60005b82811015613ebe57848901518255600182019150602085019450602081019050613e99565b86831015613edb5784890151613ed7601f891682613de4565b8355505b6001600288020188555050505b505050505050565b7f4552433732313a20617070726f766520746f2063616c6c657200000000000000600082015250565b6000613f26601983612ddb565b9150613f3182613ef0565b602082019050919050565b60006020820190508181036000830152613f5581613f19565b9050919050565b7f4552433732313a207472616e7366657220746f206e6f6e20455243373231526560008201527f63656976657220696d706c656d656e7465720000000000000000000000000000602082015250565b6000613fb8603283612ddb565b9150613fc382613f5c565b604082019050919050565b60006020820190508181036000830152613fe781613fab565b9050919050565b600081905092915050565b600061400482612dd0565b61400e8185613fee565b935061401e818560208601612dec565b80840191505092915050565b60006140368285613ff9565b91506140428284613ff9565b91508190509392505050565b600081519050919050565b600082825260208201905092915050565b60006140758261404e565b61407f8185614059565b935061408f818560208601612dec565b61409881612e16565b840191505092915050565b60006080820190506140b86000830187612f0d565b6140c56020830186612f0d565b6140d26040830185612cd7565b81810360608301526140e4818461406a565b905095945050505050565b6000815190506140fe81612d41565b92915050565b60006020828403121561411a57614119612d0b565b5b6000614128848285016140ef565b91505092915050565b7f455243373231456e756d657261626c653a20636f6e736563757469766520747260008201527f616e7366657273206e6f7420737570706f727465640000000000000000000000602082015250565b600061418d603583612ddb565b915061419882614131565b604082019050919050565b600060208201905081810360008301526141bc81614180565b9050919050565b7f4552433732313a206d696e7420746f20746865207a65726f2061646472657373600082015250565b60006141f9602083612ddb565b9150614204826141c3565b602082019050919050565b60006020820190508181036000830152614228816141ec565b9050919050565b7f4552433732313a20746f6b656e20616c7265616479206d696e74656400000000600082015250565b6000614265601c83612ddb565b91506142708261422f565b602082019050919050565b6000602082019050818103600083015261429481614258565b9050919050565b7f4e487b7100000000000000000000000000000000000000000000000000000000600052601260045260246000fd5b60006142d582612ccd565b91506142e083612ccd565b92508282039050818111156142f8576142f7613951565b5b92915050565b7f4e487b7100000000000000000000000000000000000000000000000000000000600052603160045260246000fdfe68747470733a2f2f697066732e696f2f697066732f516d64665a317a706d4b45645333516a62597a4c554c686d3148314b416b44653843354e5068395a5875387236312fa2646970667358221220a68ea31fbf25ef0862113199986940e531ac735b16546ae974001c476ef7c5fa64736f6c63430008110033",
  "linkReferences": {},
  "deployedLinkReferences": {}
}